:020000040800F2
:10000000C81F0020B50C0008B90A0008BB0A000888
:10001000BF0A0008C30A0008C70A00080000000061
:10002000000000000000000000000000CB0A0008F3
:10003000CD0A000800000000CF0A0008D10A00081D
:10004000CF0C0008CF0C0008CF0C0008CF0C000824
:10005000CF0C0008CF0C0008CF0C0008CF0C000814
:10006000CF0C0008CF0C0008CF0C0008CF0C000804
:10007000CF0C0008CF0C0008CF0C0008CF0C0008F4
:10008000CF0C0008CF0C0008CF0C0008CF0C0008E4
:10009000CF0C0008CF0C0008CF0C0008CF0C0008D4
:1000A000CF0C0008CF0C0008CF0C0008CF0C0008C4
:1000B000CF0C0008CF0C0008BB310008CF0C0008A3
:1000C000CF0C0008CF0C0008CF0C0008CF0C0008A4
:1000D000CF0C000865280008553B0008CF0C00082D
:1000E000CF0C0008CF0C0008CF0C000800F002F87D
:1000F00000F0B0F80AA090E8000C82448344AAF112
:100100000107DA4501D100F0A5F8AFF2090EBAE80F
:100110000F0013F0010F18BFFB1A43F0010318473B
:10012000EC8600000C8700000A444FF0000C10F829
:10013000013B13F0070408BF10F8014B1D1108BF65
:1001400010F8015B641E05D010F8016B641E01F805
:10015000016BF9D113F0080F1EBF10F8014BAD1C55
:100160000C1B09D16D1E58BF01F801CBFAD505E073
:1001700014F8016B01F8016B6D1EF9D59142D6D3CD
:10018000704700000023002400250026103A28BFF5
:1001900078C1FBD8520728BF30C148BF0B607047F9
:1001A0006E2903F00786702903F04987662906F057
:1001B0009C84652906F09984672906F09684612954
:1001C00006F0958403681B0A28BF41F08001692965
:1001D00003F0B485642903F0B185752903F0AE8579
:1001E0006F2903F0D786782903F01587E92903F0F2
:1001F0007186E42903F06E86F52903F06B86EF29FA
:1002000003F0D486F82903F014870368DB0928BFBC
:1002100041F08001632904F01984732904F01E84DD
:10022000E32904F02984F32904F02E840020704788
:100230001FB504F07FFC04000020002105F0B8FB8E
:10024000401C60600020002105F09CFBE0601FBDA9
:1002500010B510BD04F040FC1146FFF7E9FF00F0B7
:10026000E6F804F019FD03B4FFF7F2FF03BC02F057
:10027000ABFA000010B503F0B7F9FC490870084666
:10028000007801280AD1FA480068401CF849086043
:1002900008460068052801D100200860F34800786E
:1002A00002280CD1F3480068401CF2490860086835
:1002B00000EBD0714910A0EB4101EF4A116010BD75
:1002C00008B503F03CFC01281AD1EC480078EC4951
:1002D0000870EA4840784870E84880788870E748B5
:1002E000C078C870E54800790871E44840794871E1
:1002F000E24880798871E148C079C87103F013FC45
:1003000002F0C9FB1023DFA20121022002F014FD3C
:10031000102001230090D64819460268322002F0CE
:1003200037FD10200090D5480278032314210220C5
:1003300002F02EFD10200090D048427803231421B3
:10034000202002F025FD10200090CC488278032365
:100350001421402002F01CFD10200090C748C278F4
:1003600003231421602002F013FD10200090C348E5
:10037000027903232A21022002F00AFD10200090B6
:10038000BE48427903232A21202002F001FD1020DB
:100390000090BA48827903232A21402002F0F8FC19
:1003A00010200090B548C27903232A21602002F072
:1003B000EFFC02F070FB08BD10B502F09BF94FF4A2
:1003C000A06000F097FC4FF4E13002F0FFF903F079
:1003D000A2FA02F08DFA02F029FE002002F01BFBC7
:1003E000002002F026FB1023A8A20121192002F010
:1003F000A3FC02F050FB40F2E73002F0B8F940F203
:10040000E73002F0B4F902F069FB02F0EBFF03F011
:10041000D7F802F0E9FE4FF4FA7002F0A8F941F6BD
:100420001F41C72002F09CFE02F035FB10BD08B54D
:10043000012093490870022048700320887004202E
:10044000C8700520087106204871072088710820AF
:10045000C871002500240026FFF7AEFF002002F03F
:10046000C5FF8D49002003F056F8074602F0E6FF6D
:1004700040F2E73002F07BF9F4E2FFF7FBFEFFF712
:100480001FFF7B48006850B9002002F0AFFF82498F
:10049000002003F040F8074602F0D0FFE2E2744883
:1004A0000068012878D1744800680128FAD1062D27
:1004B00010D2DFE805F003101E63727F681CC5B21E
:1004C000764803F003F8074602F090FF4FF42F70D0
:1004D00002F04DF97BE0681CC5B27149714803F028
:1004E0001AF8074602F0AAFF4FF42F7002F03FF906
:1004F0006DE0681CC5B26C4802F0E8FF074602F0E8
:1005000075FF6A49684803F006F8074602F096FF4F
:10051000322002F02CF9664802F0D8FF074602F0BC
:1005200065FF6449624802F0F6FF074602F086FF65
:10053000322002F01CF94FF0834002F0C7FF07465B
:1005400002F054FF5B495C4802F0E5FF074602F009
:1005500075FF322002F00BF9584802F0B7FF07464A
:1005600002F044FF5649574802F0D5FF074602F013
:1005700065FF40F2E73002F0FAF828E0681CC5B2E7
:100580000021514802F0C7FF074602F057FF40F232
:10059000E73002F0ECF81AE01AE0681CC5B24B48EC
:1005A00002F094FF074602F021FF40F2E73002F02C
:1005B000DEF80CE002253F493A4802F0ACFF07465E
:1005C00002F03CFF40F2E73002F0D1F800BF49E210
:1005D00027480068022847D127480068012843D1EE
:1005E000052C18D2DFE804F0031825337E00601CC8
:1005F000C4B2374802F0FAFE4FF4FA7002F0B7F8CE
:100600003049344802F087FF074602F017FF4FF4E5
:100610002F7002F0ACF872E0601CC4B22E4802F0F9
:1006200055FF074602F0E2FE4FF42F7002F09FF8EC
:1006300065E0601CC4B22949294802F06CFF0746F6
:1006400002F0FCFE4FF42F7002F091F857E0601CAE
:10065000C4B2154802F03AFF074602F0C7FE4FF455
:100660002F7002F084F84AE04AE000000800002001
:100670000C00002000000020040000204C1300208B
:10068000441300206D656E753D0000005278427580
:1006900066666572310000009A99C9419A99CDC188
:1006A00000004E420000C8C1000070C100004C4272
:1006B0000000A0C00000484200007041CDCCDC41E9
:1006C000CDCC3A420000C8416666CA416666DAC1CE
:1006D00066665EC1000058C100007841000090408D
:1006E000000060410124E049E04802F014FF0746A1
:1006F00002F0A4FE4FF42F7002F039F800BFB1E110
:10070000DB480068032861D1DA48006801285DD120
:10071000052C5AD2DFE804F0031E2C3C4A00601C72
:10072000C4B2D548006802F0D1FE074602F05EFE72
:100730004FF4FA7002F01BF8D0480168CE48006808
:1007400002F0E9FE074602F079FE4FF42F7002F046
:100750000EF83AE0601CC4B2C948006802F0B6FE68
:10076000074602F043FE4FF42F7002F000F82CE031
:10077000601CC4B2C3480168C348006802F0CBFEE5
:10078000074602F05BFE4FF42F7001F0F0FF1CE013
:10079000601CC4B2BD48006802F098FE074602F033
:1007A00025FE4FF42F7001F0E2FF0EE00124B34864
:1007B0000168B148006802F0AEFE074602F03EFE56
:1007C0004FF42F7001F0D3FF00BF4BE1A848006841
:1007D000042894D1A7480068012890D102F055FF61
:1007E000342003F0EFF8052E1ED2DFE806F0031EDA
:1007F00065ACF400701CC6B29F48006802F066FE4B
:10080000074602F0F3FD4FF4FA7001F0B0FF9B4889
:1008100001689948006802F07EFE074602F00EFE6D
:100820004FF42F7001F0A3FF1BE1701CC6B200272C
:100830003BE0384605F090FF8346954801685846EE
:1008400005F0D6FF80468C480168404605F034FE2E
:10085000824602F03BFE814602F0C8FD384605F0B4
:100860007BFF00908B480168009805F0C1FF83462C
:1008700082480168584605F01FFE8146384605F05B
:100880006BFF009082480168009805F0B1FF834635
:1008900079480168584605F00FFE8246494602F045
:1008A0003AFE804602F0CAFD7F1C642FC1DB4FF484
:1008B0002F7001F05CFFD4E0701CC6B200273BE053
:1008C000384605F049FF834673480168584605F0ED
:1008D0008FFF82466A480168504605F0EDFD81466B
:1008E00002F0F4FD804602F081FD384605F034FF49
:1008F00000906A480168009805F07AFF83466848CE
:100900000168584605F0D8FD8146384605F024FFB9
:10091000009061480168009805F06AFF83465848D6
:100920000168584605F0C8FD8246494602F0F3FDCD
:10093000804602F083FD7F1C642FC1DB4FF42F70D3
:1009400001F015FF8DE0701CC6B200273BE0384671
:1009500005F002FF834653480168584605F048FFFA
:10096000824649480168504605F0A6FD814602F0DE
:10097000ADFD804602F03AFD384605F0EDFE0090F0
:1009800049480168009805F033FF83463D480168F7
:10099000584605F091FD8146384605F0DDFE009091
:1009A00040480168009805F023FF834636480168F7
:1009B000584605F081FD8246494602F0ACFD80466E
:1009C00002F03CFD7F1C642FC1DB4FF42F7001F05F
:1009D000CEFE46E0FFE7012600273BE0384605F063
:1009E000BBFE834631480168584605F001FF824648
:1009F00026480168504605F05FFD814602F066FD1D
:100A0000804602F0F3FC384605F0A6FE0090284828
:100A10000168009805F0ECFE8346264801685846B8
:100A200005F04AFD8146384605F096FE00901F48C5
:100A30000168009805F0DCFE8346144801685846BA
:100A400005F03AFD8246494602F065FD804602F017
:100A5000F5FC7F1C642FC1DB4FF42F7001F087FE83
:100A600000BF00BF09E500000000C84166665EC126
:100A70000C000020040000206413002068130020F4
:100A80006C13002078130020741300207C130020C6
:100A900084130020881300208C1300209013002062
:100AA0007013002094130020981300209C13002042
:100AB000A013002080130020704700BFFEE700BF96
:100AC000FEE700BFFEE700BFFEE7704770477047D4
:100AD000704700000CB50020019000906C48006841
:100AE00040F480306A49086000BF6948006800F43B
:100AF000003000900198401C0190009818B90198AE
:100B0000B0F5A06FF1D16248006800F4003010B178
:100B10000120009001E0002000900098012843D1BE
:100B20005C48006840F010005A49086008460068B8
:100B300020F0030008600846006840F002000860EA
:100B40005348406852494860084640684860084633
:100B5000406840F4806048600846406820F47C109B
:100B600048600846406840F4E8104860084600685D
:100B700040F08070086000BF4548006800F00070D9
:100B80000028F9D04248406820F0030040494860FE
:100B90000846406840F00200486000BF3C4840689A
:100BA00000F00C000828F9D10CBD10B5FFF792FF3A
:100BB00010BD10B53648006840F0010034490860A7
:100BC0000846406834490840314948600846006892
:100BD000324908402E4908600846006820F4802009
:100BE00008600846406820F4FE0048604FF41F008B
:100BF0008860FFF7DAFF4FF000602949086010BDF8
:100C000010B5002100200022214B5B6803F00C018D
:100C100021B1042906D0082928D107E0214B224C14
:100C2000236027E01F4B204C236023E0184B5B68B8
:100C300003F47010164B5B6803F48032022303EB5D
:100C4000904022B9194B4343174C23600DE0104BE1
:100C50005B6803F4003323B1144B4343124C23600D
:100C600003E0104B4343104C236003E00D4B0E4C4C
:100C7000236000BF00BF064B5B68C3F303130C4C3B
:100C8000E15C094B1B68CB40074C236010BD0000A2
:100C900000100240002002400000FFF8FFFFF6FEB7
:100CA00008ED00E000127A001000002000093D006D
:100CB000140000200948804709480047FEE7FEE786
:100CC000FEE7FEE7FEE7FEE7FEE7FEE7FEE7FEE7FC
:100CD00004480549054A064B70470000B30B00085D
:100CE000ED000008C8190020C81F0020C81B002004
:100CF000C81B002031490143314A1160704770B56B
:100D0000002100230F22C47804B32D4C246804F47E
:100D1000E064C4F5E064210AC1F10403CA404478E8
:100D200004FA03F18478144021430901254C067824
:100D3000A155047804F01F050124AC4005786D111D
:100D4000AD0005F1E025C5F8004109E0047804F0A4
:100D50001F050124AC401C4D0678761145F826404D
:100D600070BD1A4A0A400243154B1B1F1A60704798
:100D700039B1134A121D12680243114B1B1D1A6030
:100D800006E00F4A121D126882430D4B1B1D1A60AC
:100D90007047042808D14FF0E021096941F00401AF
:100DA0004FF0E022116107E04FF0E021096921F0E6
:100DB00004014FF0E0221161704700000000FA05C5
:100DC0000CED00E000E400E080E100E080FFFF1FA8
:100DD00010B50446CC48844208D10121042000F01B
:100DE0002DFB0021042000F029FB46E0C748844287
:100DF00008D10121082000F021FB0021082000F08B
:100E00001DFB3AE0C248844208D10121102000F0C5
:100E100015FB0021102000F011FB2EE0BD4884429C
:100E200008D10121202000F009FB0021202000F042
:100E300005FB22E0B848844208D10121402000F09F
:100E4000FDFA0021402000F0F9FA16E0B348844290
:100E500008D10121802000F0F1FA0021802000F06B
:100E6000EDFA0AE0AE48844207D10121801500F076
:100E7000E5FA0021A01500F0E1FA10BD10B501213E
:100E8000084600F0DBFA0021012000F0D7FA10BD7F
:100E90002DE9F04102460025002600200023002411
:100EA000002791F803C00CF00F0591F803C00CF077
:100EB000100CBCF1000F03D091F802C04CEA0505FC
:100EC00091F800C0BCF1000F31D0146800202BE075
:100ED0004FF0010C0CFA00F3B1F800C00CEA030665
:100EE0009E4220D183004FF00F0C0CFA03F7BC4355
:100EF00005FA03FC4CEA040491F803C0BCF1280F86
:100F000006D14FF0010C0CFA00FCC2F814C00AE044
:100F100091F803C0BCF1480F05D14FF0010C0CFA59
:100F200000FCC2F810C0401C0828D1D31460B1F8EE
:100F300000C0BCF1FF0F34DD546800202EE000F14A
:100F4000080C4FF0010808FA0CF3B1F800C00CEAE5
:100F500003069E4221D183004FF00F0C0CFA03F7D9
:100F6000BC4305FA03FC4CEA040491F803C0BCF14D
:100F7000280F05D100F1080C08FA0CF8C2F814800B
:100F800091F803C0BCF1480F07D100F1080C4FF0F5
:100F9000010808FA0CF8C2F81080401C0828CED3CB
:100FA0005460BDE8F0814FF6FF710180022181702D
:100FB0000421C17070470246002093680B400BB1BA
:100FC000012000E0002070470146886880B2704729
:100FD00002460020D3680B400BB1012000E0002046
:100FE00070470146C86880B270470161704741612F
:100FF00070470AB1016100E041617047C16070470C
:101000004FF480320A438261816182618269826920
:10101000704702460020434B18684FF68073184013
:1010200040EA021008433F4B186070473E49C861D0
:101030007047F0B50A46002300240021002500F087
:101040000046B6F1004F02D1364EF16901E0354E4F
:101050007168C0F3034583B200F44016B6F5401F33
:1010600008D121F070612F4E766826F070662D4F02
:101070007E6012E000F48016B6F5801F06D10326CC
:1010800006FA05F4A14341F0706106E0460D360111
:1010900003FA06F6B14341F0706122B1460D360104
:1010A00003FA06F6314300F00046B6F1004F02D1D4
:1010B0001C4EF16101E01B4E7160F0BD30B50022A5
:1010C0008B071C0F0F2303FA04F2164B08338C1006
:1010D00053F824309343134C08348D1044F82530D2
:1010E00023468C1053F824308C07240F00FA04F4A4
:1010F00023430C4C08348D1044F8253030BD0A4988
:10110000DC3108607047000000080140000C01401D
:10111000001001400014014000180140001C014073
:10112000002001400000014000002042DF4800682C
:1011300040F00100DD49086008464068DC4908408D
:10114000DA49486008460068DA490840D74908602B
:101150000846006820F4802008600846406820F4B3
:10116000FE0048604FF41F0088607047CF4909684F
:1011700021F48031CD4A11601146096821F48021A3
:101180001160B0F5803F03D0B0F5802F0ED106E09E
:10119000C649096841F48031C44A116007E0C34977
:1011A000096841F4A021C14A116000E000BF00BFFE
:1011B000704710B501460022002300204A11012A81
:1011C00002D1BA4C236806E0022A02D1B74C236A46
:1011D00001E0B64C636A01F01F02012494401C40F8
:1011E0000CB1012000E0002010BD38B500200090B7
:1011F0000024002500BF3120FFF7DBFF05460098E3
:10120000401C00900098B0F5A06F01D0002DF2D0E6
:101210003120FFF7CEFF08B1012400E00024204672
:1012200038BD01460020A14A106820F0F80040EACD
:10123000C10010607047A049086070470246002056
:101240009A4B586820F47C1042EA01031843974BEC
:101250005860704798490866704701460020934AD5
:10126000506820F003000843506070478F48406882
:1012700000F00C007047014600208C4A506820F0B6
:10128000F00008435060704701460020874A5068CC
:1012900020F4E06008435060704701460020834A14
:1012A000506820F4605040EAC1005060704729B196
:1012B0007E4A527A02437D4B5A7204E07B4A527A4C
:1012C00082437A4B5A7270477B49D8310860704725
:1012D00001460020754A506820F4404008435060A1
:1012E00070470021714A20321170704A82F8201034
:1012F000012802D004280AD104E001216B4A2032DF
:10130000117005E00521694A2032117000E000BF2C
:1013100000BF70476949086070476449096A014322
:10132000624A11627047654944390860704730B5B8
:1013300000210022002400235C4D6D6805F00C01A3
:1013400021B1042905D0082923D105E05C4D0560B1
:1013500022E05B4D05601FE0544D6D6805F470128E
:10136000524D6D6805F48034022505EB92421CB99C
:10137000544D554305600BE04C4D6D6805F4003548
:101380001DB1504D5543056002E04D4D554305607C
:1013900002E04B4D056000BF00BF444D6D6805F095
:1013A000F0010909484D6B5C0568DD4045603F4D23
:1013B0006D6805F4E061090A434D6B5C4568DD40EA
:1013C00085603A4D6D6805F46051C90A3E4D6B5C0D
:1013D0004568DD40C560354D6D6805F44041890BB9
:1013E0003A4D6B5CC568B5FBF3F5056130BD29B1BD
:1013F0002E4A526902432D4B5A6104E02B4A52692E
:1014000082432A4B5A61704729B1284A92690243A4
:10141000264B9A6104E0254A92698243234B9A61E4
:10142000704729B1214AD2690243204BDA6104E0B6
:101430001E4AD26982431D4BDA61704729B11B4AAB
:10144000D2680243194BDA6004E0184AD26882433A
:10145000164BDA60704729B1144A12690243134BE4
:101460001A6104E0114A12698243104B1A617047F5
:1014700012494039086070470F49C86470470B49EA
:10148000C87170470948406A40F080700749486257
:10149000704701460020054A92680A400AB10120BF
:1014A00000E0002070470149887270470010024038
:1014B0000000FFF8FFFFF6FE0000424280044242B7
:1014C00000127A0000093D002400002034000020B2
:1014D00010B50446FE48844208D10121C014FFF72C
:1014E000ADFF0021E014FFF7A9FFC4E0B4F1804F85
:1014F00008D101210846FFF7AEFF00210120FFF7C8
:10150000AAFFB8E0F348844208D101210220FFF786
:10151000A2FF00210220FFF79EFFACE0EE488442CC
:1015200008D101210420FFF796FF00210420FFF7D6
:1015300092FFA0E0E948844208D101210820FFF78A
:101540008AFF00210820FFF786FF94E0E4488442E8
:1015500008D101211020FFF77EFF00211020FFF7A6
:101560007AFF88E0DF48844208D101212020FFF77C
:1015700072FF00212020FFF76EFF7CE0DA488442F2
:1015800008D101214014FFF759FF00216014FFF733
:1015900055FF70E0D548844209D10121C804FFF706
:1015A0004DFF00214FF40020FFF748FF63E0D048D3
:1015B000844209D101210805FFF740FF00214FF4C3
:1015C0008010FFF73BFF56E0CA48844209D1012151
:1015D0004805FFF733FF00214FF40010FFF72EFFFF
:1015E00049E0C548844208D101214020FFF733FF7C
:1015F00000214020FFF72FFF3DE0C048844208D182
:1016000001218020FFF727FF00218020FFF723FF23
:1016100031E0BB48844208D101218015FFF71BFF50
:101620000021A015FFF717FF25E0B648844209D135
:1016300001210804FFF702FF00214FF48030FFF77B
:10164000FDFE18E0B048844209D101214804FFF7AB
:10165000F5FE00214FF40030FFF7F0FE0BE0AB4841
:10166000844208D101218804FFF7E8FE00214FF4ED
:101670008020FFF7E3FE10BD00220288944B9842C1
:101680000ED0994B98420BD0B0F1804F08D0914BBF
:10169000984205D0904B984202D0904B984204D18A
:1016A0004FF68F731A404B881A438D4B984207D0E0
:1016B0008C4B984204D04FF6FF431A40CB881A4314
:1016C00002808B8883850B880385814B98420BD0E1
:1016D000854B984208D08B4B984205D08A4B984254
:1016E00002D08A4B984201D10B7A03860123838270
:1016F000704770B5002400220023058C4FF6FE765B
:1017000035400584028C8388048B4FF68F752C40FE
:10171000B51E2C400D882C43751E2A400D892A4386
:101720004D882A436A4DA8420BD06F4DA84208D07D
:10173000744DA84205D0744DA84202D0734DA84202
:1017400013D14FF6F7752A404D892A434FF6FB75A2
:101750002A408D882A434FF6FF652B404FF6FF55F0
:101760002B408D892B43CD892B4383800483CD88E7
:101770008586028470BD70B5002400220023058C8C
:101780004FF6EF7635400584028C8388048B48F64B
:10179000FF752C404FF6FF452C400D884FF6FF7625
:1017A00006EA05252C434FF6DF752A400D8906EA27
:1017B00005152A434D8806EA05152A43444DA842DB
:1017C00002D0494DA8421DD14FF67F752A404D8960
:1017D0004FF6FF7606EA05152A434FF6BF752A40F5
:1017E0008D8806EA05152A434FF6FF352B404FF248
:1017F000FF752B408D8906EA85052B43CD8906EAC6
:1018000085052B4383800483CD880587028470BDC2
:1018100070B5002400220023058C4FF6FF6635408A
:101820000584028C8388848B4FF68F752C404FF68D
:10183000FC752C400D882C434FF6FF552A400D892E
:101840004FF6FF7606EA05252A434D8806EA052568
:101850002A431F4DA84202D0234DA8421DD14FF26A
:10186000FF752A404D894FF6FF7606EA05252A4383
:101870004FF6FF352A408D8806EA05252A434EF6A5
:10188000FF752B404DF6FF752B408D8906EA051537
:101890002B43CD8906EA05152B4383808483CD88AD
:1018A0008587028470BD70B5002200230024058C5A
:1018B0004EF6FF7635400584038C8488828B48F68B
:1018C000FF752A404FF6FF452A400D8820E00000B2
:1018D000002C01400004004000080040000C0040C3
:1018E000001000400014004000340140004C014052
:1018F000005001400054014000180040001C00400E
:1019000000200040004001400044014000480140E8
:101910004FF6FF7606EA05252A434DF6FF752B4064
:101920000D8906EA05352B434D8806EA05352B431C
:10193000FA4DA84202D0FA4DA84208D14BF6FF75E5
:101940002C408D894FF6FF7606EA85152C4384805E
:101950008283CD88A0F84050038470BD828B4FF203
:10196000FF331A408283828B4FF6FF7303EA012311
:101970001A4382837047F0B50C46154600220021B9
:101980000026078C4EF6FF7C07EA0C070784828B43
:10199000018C4FF6FF7707EA043640F6FF473A40DE
:1019A0004FF6FF7707EA05273A434FF6FF7707EA36
:1019B00003373A43D94FB8420ED0D94FB8420BD073
:1019C000B0F1804F08D0D74FB84205D0D64FB842BB
:1019D00002D0D64FB84206D14DF6FF77394046F4D3
:1019E0008057394305E047F6FF57394044F48057A4
:1019F000394382830184F0BD828B4FF6F3731A4022
:101A00008283828B0A4382837047F0B50C46154669
:101A1000002200210026078C4FF6FF6C07EA0C0716
:101A20000784828B018C4FF6FF7707EA04264FF676
:101A30000C773A404FF6FF7707EA03172F433A43F4
:101A4000B64FB8420ED0B64FB8420BD0B0F1804F6F
:101A500008D0B44FB84205D0B34FB84202D0B34F0C
:101A6000B84206D14FF6FF57394046F480773943E4
:101A700005E04FF2FF57394044F4807739438283C1
:101A80000184F0BD028B4FF2FF331A400283028BB8
:101A90004FF6FF7303EA01231A4302837047F0B540
:101AA0000C461546002200210026078C4FF6EF7CDD
:101AB00007EA0C070784028B018C4FF6FF7707EAD1
:101AC000041640F6FF473A404FF6FF7707EA033720
:101AD0003A434FF6FF7707EA05273A438F4FB8425C
:101AE0000ED08F4FB8420BD0B0F1804F08D08D4F41
:101AF000B84205D08C4FB84202D08C4FB84206D1C4
:101B00004FF6DF77394046F01007394305E04FF6CE
:101B10005F77394044F01007394302830184F0BDF8
:101B2000028B4FF6F3731A400283028B0A4302833F
:101B30007047F0B50C46154600220021068C4FF682
:101B4000FE773E400684028B018C4FF60C763240C5
:101B50007E1C06EA03162E433243704EB0420ED06E
:101B60006F4EB0420BD0B0F1804F08D06D4EB042F6
:101B700005D06D4EB04202D06C4EB04206D14FF649
:101B8000FD76314044F00106314305E04FF6F5762D
:101B9000314044F00106314302830184F0BD70B549
:101BA00005460C465D4885420ED05D4885420BD007
:101BB000B5F1804F08D05B48854205D05A48854230
:101BC00002D05A48854200D100E000BF208850B9B9
:101BD0002389A28861882846FFF7ABFFE188284661
:101BE000FFF79EFF25E0208804280AD12389A288D8
:101BF00061882846FFF753FFE1882846FFF742FF38
:101C000017E0208808280AD12389A28861882846FD
:101C1000FFF7FBFEE1882846FFF7EEFE09E0238987
:101C2000A28861882846FFF7A6FEE1882846FFF7CC
:101C300095FE70BD2DE9F04105460C4600260127B2
:101C4000608808B9022600E00026A088012801D19A
:101C5000022700E001272088A0B92389A288618893
:101C60002846FFF766FFE1882846FFF759FF2389DA
:101C70003A4631462846FFF712FFE1882846FFF72B
:101C800001FF13E02389A28861882846FFF707FF38
:101C9000E1882846FFF7F6FE23893A463146284672
:101CA000FFF747FFE1882846FFF73AFFBDE8F081DC
:101CB0000A884B881A438B881A43CB881A430B89AE
:101CC0001A434B891A438B891A43A0F84420704762
:101CD0004FF6FF71818000210180C1804180017237
:101CE00070470021018041808180C1800181418154
:101CF0008181C18170470021018041800121818063
:101D00000021C180018170470021018041808180D4
:101D1000C18001814181818170470000002C014018
:101D2000003401400004004000080040000C004066
:101D300021B1028842F00102028004E002884FF6DD
:101D4000FE731A400280704731B1B0F8442042F46B
:101D50000042A0F8442005E0B0F84420C2F30E028F
:101D6000A0F8442070471AB183890B43838102E0B5
:101D700083898B43838170478182704741EA0203E4
:101D8000A0F8483070471AB183890B43838102E081
:101D900083898B438381704701894FF6F872114024
:101DA000018170470A46002101894FF68F7319405F
:101DB00011430181704730B504460D46294620463F
:101DC000FFF7F0FF208940F00700208130BD2DE9AA
:101DD000F04104460D4616461F46602D06D13B468F
:101DE000012231462046FFF75AFE05E03B4601221C
:101DF00031462046FFF79DFE29462046FFF7D2FFD9
:101E0000208940F007002081BDE8F08130B50C4604
:101E100000210189C9B24FF6FF7505EA0325154374
:101E200025432943018130BD2DE9F04105460E4689
:101E300017469846002443463A4631462846FFF75F
:101E4000E5FF2C894FF6F870044044F007044FF684
:101E50008F70044044F070042C81BDE8F081F0B52F
:101E600004460D4616461F463B4632462946204646
:101E7000FFF7CCFF208940F480402081F0BD018530
:101E8000828270470A46002101884FF68F731940FD
:101E9000114301807047F0B50C4615461E460021DF
:101EA000002200230189028B038C4FF6F87739401A
:101EB00021434FF6FC473A4040F201173A434FF6B0
:101EC000DD773B404FF6FF7707EA06172F433B438A
:101ED000018102830384F0BD0A460021018B4FF685
:101EE0008F7319401143018370470A460021018B0B
:101EF00048F6FF7319404FF6FF7303EA02231943B4
:101F0000018370470A460021818B4FF68F73194079
:101F10001143818370470A460021818B48F6FF7385
:101F200019404FF6FF7303EA022319438183704778
:101F300021B1028842F08002028004E002884FF65C
:101F40007F731A400280704721B1828842F00402F8
:101F5000828004E082884FF6FB731A4082807047CB
:101F600021B1828842F00802828004E082884FF624
:101F7000F7731A408280704721B1828842F00102D3
:101F8000828004E082884FF6FE731A408280704798
:101F90000A460021018B4FF6F77319401143018364
:101FA00070470A460021018B4FF2FF7319404FF62C
:101FB000FF7303EA02231943018370470A46002195
:101FC000818B4FF6F77319401143818370470A469E
:101FD0000021818B4FF2FF7319404FF6FF7303EA24
:101FE00002231943818370470A460021018B4FF673
:101FF000FB7319401143018370470A460021018B8E
:102000004FF6FF3319404FF6FF7303EA02231943DB
:10201000018370470A460021818B4FF6FB731940FC
:102020001143818370470A460021818B4FF6FF33AD
:1020300019404FF6FF7303EA022319438183704767
:102040000A460021018B4FF67F731940114301832B
:1020500070470A460021018BC1F30E014FF6FF7352
:1020600003EA02231943018370470A460021818B4A
:102070004FF67F7319401143818370470A46002150
:10208000818BC1F30E014FF6FF7303EA022319435C
:10209000818370470A460021018C4FF6FD73194079
:1020A0001143018470470A460021018C4FF6F773F3
:1020B00019401143018470470A460021018C4FF6F4
:1020C000DF7319404FF6FF7303EA021319430184CB
:1020D00070470A460021018C4FF67F7319404FF676
:1020E000FF7303EA02131943018470470A46002173
:1020F000018C4FF6FF5319404FF6FF7303EA02239A
:102100001943018470470A460021018C4FF2FF7386
:1021100019404FF6FF7303EA022319430184704705
:102120000A460021018C4DF6FF7319404FF6FF73EC
:1021300003EA023319430184704730B500230124B8
:102140008C40A3B2048C9C430484048C02FA01F5F5
:10215000ADB22C43048430BD30B5002304248C4040
:10216000A3B2048C9C430484048C02FA01F5ADB242
:102170002C43048430BD70B503460020002418466B
:10218000183001258D40ACB21D8CA5431D8409B1CA
:10219000082909D100EB6100056825F0700505608C
:1021A0000568154305600EE00D1FC5F34E05284474
:1021B000056825F4E045056005684FF6FF7606EAF8
:1021C00002263543056070BD21B1028842F002024B
:1021D000028004E002884FF6FD731A4002807047C7
:1021E00021B1028842F00402028004E002884FF626
:1021F000FB731A400280704721B1828842F080024E
:10220000828004E082884FF67F731A408280704794
:1022100002884FF6F7731A40028002880A43028050
:10222000704782884FF68F731A40828082880A43F3
:102230008280704702894FF6F8731A400281028942
:102240000A430281704702894FF67F731A40028168
:1022500002890A43028170478184704781857047F3
:10226000818670470187704781877047A0F84010CA
:10227000704702884FF6FF431A40028002880A43E3
:10228000028070470146888E70470146088F70476C
:102290000146888F70470146B1F8400070470146FB
:1022A000888C70470146088D704702460020138ACB
:1022B0000B400BB1012000E000207047CA430282AE
:1022C000704730B50246002000230024158A05EA35
:1022D0000103958905EA010413B10CB1012000E066
:1022E000002030BDCA4302827047000010B504468A
:1022F000FB48844209D101218803FFF79FF80021A0
:102300004FF48040FFF79AF832E0F648844209D152
:1023100001214804FFF79FF800214FF40030FFF738
:102320009AF825E0F048844209D101218804FFF79A
:1023300092F800214FF48020FFF78DF818E0EB4869
:10234000844209D10121C804FFF785F800214FF428
:102350000020FFF780F80BE0E548844208D1012116
:102360000805FFF778F800214FF48010FFF773F8A5
:1023700010BD2DE9F04786B005460E460024A24662
:1023800000BFA1460027B08900B100BF2F462C8AAC
:102390004CF6FF700440F08804432C82AC894EF662
:1023A000F3100440B088318908437189084304431D
:1023B000AC81AC8A4FF6FF400440B0890443AC8244
:1023C00001A8FEF7B4FFC648874202D1DDF810A08D
:1023D00001E0DDF80CA0A88900F4004040B10AEB50
:1023E000CA0000EB0A1031684900B0FBF1F807E0C1
:1023F0000AEBCA0000EB0A1031688900B0FBF1F863
:102400006420B8FBF0F004012009642101FB10896D
:10241000A88900F4004040B1322000EBC900B0FBB5
:10242000F1F000F00700044308E0322000EB09104F
:102430006421B0FBF1F000F00F0004432C8106B0E2
:10244000BDE8F0874FF41651016000218180C18002
:1024500001810C21418100218181704710B5024624
:102460000020108A4FF2FF0318400B884C8823434A
:102470008C882343CC8823431843108210BD00214D
:10248000018041808180C180704721B1828942F4FE
:102490000052828104E082894DF6FF731A408281E6
:1024A0007047F0B50346002400260025002040F6C2
:1024B0006A17B94200D100BF1846C1F3421401F0B7
:1024C0001F06012707FA06F5012C01D10C3004E0A4
:1024D000022C01D1103000E014301AB107682F43EC
:1024E000076002E00768AF430760F0BD1AB1838A56
:1024F0000B43838202E0838A8B4383827047028A84
:102500004FF6F0731A400282028A0A430282704731
:1025100082894FF2FF731A40828182890A43828145
:10252000704721B1828942F00202828104E08289EF
:102530004FF6FD731A4082817047028A4FF6DF73AF
:102540001A400282028A0A430282704721B1028A3B
:1025500042F48042028204E0028A4BF6FF731A4082
:1025600002827047C1F30802828070470146888862
:10257000C0F308007047818941F0010181817047F3
:10258000028BD2B20283028B42EA0122028370479D
:10259000028B02F47F420283028B0A43028370475C
:1025A00021B1828A42F02002828204E0828A4FF6C0
:1025B000DF731A408282704721B1828A42F0100292
:1025C000828204E0828A4FF6EF731A40828270475B
:1025D00021B1828A42F00802828204E0828A4FF6A8
:1025E000F7731A408282704721B1828942F4004217
:1025F000828103E08289C2F30E028281704721B199
:10260000828A42F40062828204E0828A4FF2FF737F
:102610001A4082827047828A4FF6FB731A40828288
:10262000828A0A438282704721B1828A42F0020282
:10263000828204E0828A4FF6FD731A4082827047DC
:1026400002460020B1F5007F00D100BF13880B4087
:102650000BB1012000E00020704701F40072B2F5D8
:10266000007F00D100BFCA430280704770B50246A8
:10267000002400230025002040F66A16B14200D154
:1026800000BFC1F3421501F01F03012606FA03F350
:10269000012D02D19689334006E0022D02D1168A1F
:1026A000334001E0968A33400C12012606FA04F406
:1026B0001688344013B10CB1012000E0002070BD39
:1026C00010B50022002340F66A14A14200D100BFD9
:1026D0000A1201249440A3B2DC43048010BD000020
:1026E000003801400044004000480040004C0040D9
:1026F0000050004010B56FF00400FEF74AFB2E4872
:1027000000682E49B0FBF1F02D49087008460078AA
:1027100000EB4001C1EBC0104FF6FF7101EAC000B1
:102720002849088010BD0146254A12784A434FF0D7
:10273000E0235A6100229A611A46126942F00102AE
:102740001A6100BF4FF0E022106900F001021AB1D7
:1027500000F48032002AF5D04FF0E022126922F016
:1027600001024FF0E0231A6100229A61704701468E
:10277000144A12884A434FF0E0235A6100229A61BA
:102780001A46126942F001021A6100BF4FF0E022BE
:10279000106900F001021AB100F48032002AF5D06D
:1027A0004FF0E022126922F001024FF0E0231A619B
:1027B00000229A61704700001000002000127A0089
:1027C000380000203A00002000BF704710B586B0E6
:1027D0000446012144F20400FEF716FE4FF4007097
:1027E000ADF8140003208DF8160018208DF817009E
:1027F00005A93B48FEF74CFB4FF48060ADF8140090
:1028000004208DF8170005A93548FEF741FB252067
:102810008DF8000003208DF801008DF802000120E2
:102820008DF803006846FEF76AFA01940020ADF8BF
:102830000800ADF80A00ADF80C00ADF810000C204F
:10284000ADF80E0001A92748FFF793FD012240F2E1
:1028500025512448FFF725FE01212248FFF715FEE8
:1028600006B010BD10B540F225511E48FFF7FEFE20
:1028700010B31C48FFF77AFEC4B21B48008800F46E
:102880000040C8B91848008800F4804060B10A2CA4
:1028900003D000201449088020E01348008840F449
:1028A00000401149088019E00D2C06D10E4800881F
:1028B00040F480400C49088010E00B480088C0F3C9
:1028C0000D000A490C5408480088401C064908803D
:1028D00008460088C72801DD0020088010BD0000E0
:1028E000000801400038014040000020CC130020C7
:1028F00008B501211020FEF787FD4FF40050ADF818
:10290000000010208DF8030003208DF802006946B6
:102910000448FEF7BDFA4FF400510248FEF765FB8C
:1029200008BD00000010014010B54FF48071FD4853
:10293000FEF75BFB4FF40071FA48FEF758FB4FF4CB
:102940000071F848FEF751FB10BD10B54FF48071CF
:10295000F448FEF74AFB4FF48071F248FEF747FB5C
:1029600010BD70B50446002520E04FF48071ED489D
:10297000FEF73DFB04F0800028B14FF40071E948F8
:10298000FEF733FB04E04FF40071E648FEF72FFB3F
:102990004FF48071E348FEF728FB4FF48071E14863
:1029A000FEF725FB6006040E681CC5B2082DDCDBB3
:1029B00070BD10B54FF40071DA48FEF716FB4FF406
:1029C0008071D848FEF711FB4FF40071D548FEF72F
:1029D0000EFB4FF48071D348FEF709FB10BD70B5B4
:1029E00005460C46FFF7E5FF7820FFF7BAFFFFF733
:1029F000ACFF1CB14020FFF7B4FF02E00020FFF75E
:102A0000B0FFFFF7A2FF2846FFF7ABFFFFF79DFFE0
:102A1000FFF78AFF70BD10B504461CB90021A6203F
:102A2000FFF7DDFF012C03D10021A720FFF7D7FF1F
:102A300010BD10B504463CB90021C820FFF7CFFFF8
:102A40000021A120FFF7CBFF012C07D10021C020DE
:102A5000FFF7C5FF0021A020FFF7C1FF10BD10B593
:102A600000218D20FFF7BBFF00211420FFF7B7FFE7
:102A70000021AF20FFF7B3FF10BD10B500218D205E
:102A8000FFF7ADFF00211020FFF7A9FF0021AF20C5
:102A9000FFF7A5FF10BD70B500241CE004F1B001E4
:102AA000C8B20021FFF79BFF00210846FFF797FF00
:102AB00000211020FFF793FF002508E09A4901EB61
:102AC000C501085D0121FFF78AFF681CC5B2802D92
:102AD000F4DB601CC4B2082CE0DB70BD70B50024D0
:102AE0000CE0002506E000208F4901EBC5010855E8
:102AF000681CC5B2802DF6DB601CC4B2082CF0DB6C
:102B0000FFF7C9FF70BD70B50A46CE1701EB5676C8
:102B1000C6F3C703CE1701EB5676F610A1EBC60637
:102B2000F4B20122A240D5B27F4A02EBC002D25CCD
:102B30002A437D4E06EBC006F25470BD70B50B46BD
:102B4000CE1701EB5676C6F3C702CE1701EB5676C9
:102B5000F610A1EBC606F4B20123A340DDB2724B1E
:102B600003EBC0039B5CDB436F4E06EBC006B35424
:102B70006D4B03EBC0039B5C2B436B4E06EBC00617
:102B8000B354694B03EBC0039B5CDB43664E06EB1F
:102B9000C006B35470BD00BF70472DE9F043064630
:102BA0000F469046002544463BE03A1BD1B27219CD
:102BB000D0B2FFF7A8FF3A1BD1B2721BD0B2FFF719
:102BC000A2FF3A19D1B2721BD0B2FFF79CFF3A199B
:102BD000D1B27219D0B2FFF796FF7A19D1B2321979
:102BE000D0B2FFF790FF7A1BD1B23219D0B2FFF703
:102BF0008AFF7A1BD1B2321BD0B2FFF784FF7A1959
:102C0000D1B2321BD0B2FFF77EFF6D1C05FB05F081
:102C100004FB040008FB1809B9F1000F01DD641E74
:102C20006D1E6000604308FB08F18842BDDABDE814
:102C3000F0832DE9FF4F81B080460E461C4600967A
:102C40002046E31704EB5373DB1021464FEAE47C84
:102C500004EB5C7C4FEAEC0CA4EBCC0CBCF1000F59
:102C600002D04FF0010C01E04FF0000C634422460B
:102C700004EBD27C4FEA6C0C03FB0CF303F0FF0B6C
:102C800003982038C7B2002547E00C2C07D107EB8A
:102C90004700264901EB800010F805A014E0102C35
:102CA00005D1234800EB071010F805A00CE0182C04
:102CB00007D107EBC7001F4901EB800010F805A002
:102CC00002E005B0BDE8F08F4FF000091FE00AF008
:102CD000800020B131464046FFF715FF03E0314642
:102CE0004046FFF72BFF4FEA4A604FEA106A701C1C
:102CF000C6B20098301AA04205D1009E08F101002A
:102D000000F0FF0806E009F1010000F0FF09B9F149
:102D1000080FDCDB00BF681CC5B25D45B5DB00BF3A
:102D2000CFE70000000C014094140020E26B000883
:102D30005670000846760008F0B506460F46144661
:102D40001D4613E022782B4639463046FFF771FFC7
:102D5000284605EBD07106EB6101CEB2C5F18000CB
:102D6000B04202DA0026B81CC7B2641C20782028C2
:102D700002DB20787E28E5DDF0BD10B5024601209B
:102D800000E050430B00A1F10104E1B2F9D110BD04
:102D90002DE9F04F06468A4691461F46099C0025BC
:102DA0002CE0781B401EC1B20A20FFF7E6FFB9FBFA
:102DB000F0F00A21B0FBF1F201FB1208B8F1000FAC
:102DC0000CD1A34604EBDB71491001FB0561C8B2CD
:102DD000234630225146FFF72CFF0DE0A34604EBBB
:102DE000DB71491001FB0561C8B208F13001CAB2BC
:102DF00023465146FFF71DFF681CC5B2BD42D0DB1C
:102E0000BDE8F08F2DE9FF4F0746884691461C46E6
:102E10004FF0000B0297CDF804802046E11704EB39
:102E20005171C1F3C701009160E009FB04F0C117C3
:102E300000EB51710BEBE101CEB20BF1010000F0A0
:102E4000FF0B002550E0102C05D1BF4800EB061009
:102E5000405D03901BE0182C07D106EBC600BB4970
:102E600001EBC000405D039011E0202C05D1B84873
:102E700000EBC610405D039009E0402C05D1B54839
:102E800000EB4620405D039001E0BDE8FF8F4FF06E
:102E9000000A17E0039800F0010020B141463846CF
:102EA000FFF731FE03E041463846FFF747FE03983F
:102EB0004010039008F1010000F0FF080AF1010042
:102EC00000F0FF0ABAF1080FE4DB781CC7B20298E1
:102ED000381AA04204D1029F01980830C0B2019074
:102EE000DDF80480681CC5B2A542ACDB0098411E29
:102EF000C9B20091002898D100BFC6E78046894634
:102F00000026002749E03FB91023324618218020CF
:102F1000FFF778FF701CC6B2464522D14FF0000A79
:102F20001AE0002410E000250AE08B4800EBC40002
:102F3000415D601E884A02EBC0004155681CC5B265
:102F4000082DF2DB601CC4B2902CECDBFFF7A3FD74
:102F50000AF1010000F0FF0A4FEA09105045E0DCD9
:102F60000026781CC7B2102F00D10027002410E0E3
:102F700000250AE0784800EBC400415D601E764AF7
:102F800002EBC0004155681CC5B2082DF2DB601C85
:102F9000C4B2902CECDBFFF77EFDB4E770B50446BD
:102FA0000D4605F1B001C8B20021FFF718FD102150
:102FB00041EA14100021FFF712FD04F00F0141F067
:102FC00001000021FFF70BFD70BD2DE9F05F054604
:102FD0000E4617469846DDF828B04FF00009CA465D
:102FE0000024E11704EB5171C910A4EBC10101B930
:102FF00001E0601CC4B2344614E021462846FFF7C5
:10300000CDFFAA460AE01BF809000121FFF7E7FC03
:1030100009F101090AF1010000F0FF0ABA45F2DBEB
:10302000601CC4B24445E8DBBDE8F09F08B501214F
:103030000820FEF7E9F94FF44070ADF800001020C9
:103040008DF8030003208DF8020069464348FDF720
:103050001FFF4FF440714148FDF7C7FFC820FFF73D
:1030600086FB0021AE20FFF7BAFC00210846FFF7DF
:10307000B6FC00211020FFF7B2FC00214020FFF732
:10308000AEFC00218120FFF7AAFC0021CF20FFF732
:10309000A6FC0021A120FFF7A2FC0021C820FFF719
:1030A0009EFC0021A620FFF79AFC0021A820FFF734
:1030B00096FC00213F20FFF792FC0021D320FFF770
:1030C0008EFC00210846FFF78AFC0021D520FFF77F
:1030D00086FC00218020FFF782FC0021D920FFF729
:1030E0007EFC0021F120FFF77AFC0021DA20FFF7B7
:1030F00076FC00211220FFF772FC0021DB20FFF795
:103100006EFC00214020FFF76AFC00212020FFF721
:1031100066FC00210220FFF762FC00218D20FFF7F2
:103120005EFC00211420FFF75AFC0021A420FFF7C9
:1031300056FC0021A620FFF752FC0021AF20FFF72C
:103140004EFCFFF7CBFC08BDA28300084200002024
:103150001A0100201A03002094140020000C0140E2
:103160007FB505460C4601210420FEF75AF9ADF85B
:103170000850ADF804400020ADF80A00ADF8060094
:1031800001A91748FEF778FA012211461448FEF704
:10319000EAFD1E208DF8000000208DF801000320BC
:1031A0008DF8020001208DF803006846FDF7A7FDA9
:1031B00001210B48FEF7BCFD7FBD10B50121084879
:1031C000FFF77FF858B101210548FFF78BF8054854
:1031D000006808B9012000E000200249086010BD25
:1031E00000080040B401224200204A4908604A48D1
:1031F000486000208860C86008624FF07A5008611B
:10320000464848614648886100204862454846492A
:103210000860002048608860C86008624FF07A50FB
:1032200008613E4848613E48886100204862704716
:103230002DE9F0418046374A5168106803F0E0FB01
:10324000344988600A469168106A03F035F93149BB
:1032500008620A46D168906803F0D2FB06462D4802
:103260008169304603F0C4FA04462A4A116A50695B
:1032700003F0BEFA0646274A9168106903F0B8FACF
:103280000746314603F018F90546214603F014F9C4
:103290002049486208468068C8600846406ABDE820
:1032A000F0812DE9F04180461F4A5168106803F013
:1032B000A7FB1D4988600A469168106A03F0FCF874
:1032C000194908620A46D168906803F099FB0646DE
:1032D00015488169304603F08BFA0446124A116A98
:1032E000506903F085FA06460F4A9168106903F0A9
:1032F0007FFA0746314603F0DFF80546214603F022
:10330000DBF80949486208468068C8600846406A98
:10331000BDE8F081141900200000A6429A99193FD7
:103320000AD7233C0000C8413C19002000B589B0F1
:1033300001210220FEF775F801210420FEF764F850
:1033400018208DF82300C020ADF8200003208DF850
:10335000220008A92148FDF79BFD2148FEF71CFD2E
:103360000020ADF81A00ADF8160044F61F60ADF865
:1033700018004720ADF8140000208DF81C0005A9A6
:103380001748FEF779F901A8FEF7ABFC6020ADF80D
:1033900004000020ADF80C000120ADF8060000206C
:1033A000ADF80A0001A90E48FEF7A3F901A90C48DF
:1033B000FEF7E1F901210A48FEF7BAFC09B000BDA9
:1033C00010B5044621460648FEF74AFF10BD10B569
:1033D000044621460248FEF745FF10BD00080140A3
:1033E0000004004010B5FFF7A1FF10BD2DE9F04724
:1033F00004462C49204603F0C7FA00D2294C2A493A
:10340000204603F0C1F900D2264C2849204603F09B
:10341000ECFA8146264903F0BDF88046254903F0C1
:10342000E7F90746244903F047F8064603F074F924
:1034300085B22846FFF7CBFFBDE8F0872DE9F14FB5
:1034400084B01849049803F09FFA01D215480490FB
:103450001549049803F098F901D212480490049891
:1034600002F0FEFF80460022144B02F01DFE0022F7
:10347000134BCDE9000102F093FB06460022114BED
:1034800002F014FD044600220F4B02F0D9FA8246E6
:1034900002F0DEFC80B20290FFF792FF05B0BDE8BB
:1034A000F08F000000002042000020C20000044312
:1034B000000087430000FA440000FA4300706740B0
:1034C00000E0704000409F4000407F402DE9F14FF8
:1034D00082B03448006802F0C3FF04460D460298EB
:1034E00002F0BEFF0022304BCDE9000102F064F98A
:1034F000804600222D4B02F0D9FC064622462B4680
:1035000002F04EFB824602F069FA2949086008463B
:103510000068BDE8FE8F2DE9F04F89B082468B46EA
:103520005146504603F064F9064602F099FF0446FE
:103530000022204B02F084FACDE90601DDE9060104
:1035400002F0FAF9044602F049FA1B4908601548EE
:10355000006802F085FFCDE904011748006802F019
:103560007FFF04460D46584602F07AFF0646224683
:103570002B4602F021F900220C4BCDE9000102F0AC
:1035800095FCCDE90201DDE9042302F009FB804648
:1035900002F024FA094908600846006809B0BDE84D
:1035A000F08F00004013002000205C400080664047
:1035B0003813002020B8C840341300203C130020EA
:1035C00008B501210820FDF71FFF48208DF80300F2
:1035D0004FF42040ADF8000003208DF8020069464A
:1035E0001848FDF755FC08BD10B500244FF40051F4
:1035F0001448FDF7E0FC70B91420FFF7B8F800BFDD
:103600004FF400510F48FDF7D6FC0028F8D01420E5
:10361000FFF7ADF801244FF400410A48FDF7CBFC59
:1036200070B91420FFF7A3F800BF4FF4004105481C
:10363000FDF7C1FC0028F8D01420FFF798F8022409
:10364000204610BD000C0140F7480078F74908609B
:10365000F5484078F6490860F3488078F5490860F5
:10366000F148C078F4490860EF480079F3490860F0
:10367000ED484079F2490860EB488079F1490860EB
:10368000E948C079F049086070472DE9F05FE748E4
:10369000006803F061F88346EC480168584603F07F
:1036A000AFF9824602F0DCFE8046E94AE94B02F0BF
:1036B000FDFB06464FF06632E74B02F0C1F90446C7
:1036C00002F08CF9E5490860D948006803F044F835
:1036D0008346E3480168584603F087F9824602F0C2
:1036E000BFFE8046DA4ADB4B02F0E0FB06460022D2
:1036F000DC4B02F0CBFD044602F070F9DA490860B9
:10370000CC48006803F028F88346D0480168584642
:1037100003F076F9824602F0A3FE8046CC4ACD4BF8
:1037200002F0C4FB06464FF06632CB4B02F088F93C
:10373000044602F053F9CD490860BF48006803F021
:103740000BF88346C6480168584603F04EF9824696
:1037500002F086FE0646BE4ABE4B02F0A7FB80463C
:103760000022C34B02F092FD044602F037F9C14932
:103770000860B248006802F0EFFF8346B348016872
:10378000584603F03DF9824602F06AFE0646B04A0A
:10379000B04B02F08BFB80460022B74B02F050F991
:1037A000044602F01BF9B5490860A548006802F01C
:1037B000D3FF8346AA480168584603F016F98246AB
:1037C00002F04EFE0646A24AA24B02F06FFB0446F0
:1037D0000022A74B02F05AFD804602F0FFF8A849EC
:1037E00008609848006802F0B7FF83469748016870
:1037F000584603F005F9824602F032FE0646944A26
:10380000944B02F053FB044600229B4B02F018F944
:10381000804602F0E3F89B4908608B48006802F09C
:103820009BFF83468E480168584603F0DEF88246C7
:1038300002F016FE8046864A864B02F037FB0646AB
:103840000022884B02F022FD044602F0C7F88E49A0
:103850000860824801688548006803F0D1F8044692
:103860008A4902F097FE8A4908607F4801688148CA
:10387000006803F0C5F80446844902F08BFE8549D0
:1038800008607A4801687D48006803F0B9F804468A
:103890007E4902F07FFE80490860764801687848DA
:1038A000006803F0ADF80446784902F073FE7B49E6
:1038B0000860724801687348006803F0A1F8044684
:1038C000724902F067FE764908606D4801686E48EB
:1038D000006803F095F804466C4902F05BFE7149FC
:1038E0000860684801685D48006803F089F804468C
:1038F000664902F04FFE6C490860634801685A4807
:10390000006803F07DF80446604902F043FE674911
:103910000860BDE8F09F00B587B001214804FDF7BD
:1039200080FD01210420FDF76FFD18208DF81B009C
:103930000420ADF8180003208DF81A0006A95C4891
:10394000FDF7A6FA48208DF81B000820ADF81800F6
:1039500003208DF81A0006A95548FDF799FA4FF48F
:10396000E13002900020ADF814000C20ADF81200F8
:103970000020ADF81000ADF80E00ADF80C0002A963
:103980004C48FEF7F6FC012240F225514948FEF76B
:1039900088FD4FF4A060FDF7ADF926208DF80400F6
:1039A00001208DF8070002208DF8050001208DF818
:1039B000060001A8FDF7A3F901213E48FEF765FDC9
:1039C00007B000BD10B5044621463A48FEF7CAFDCF
:1039D00000BF80213748FEF733FE0028F9D010BD24
:1039E00070B505460E46002404E0285DFFF7EAFFA7
:1039F000601C84B2B442F8DB70BD70B5044600258B
:103A000004E0605DFFF7DEFF681CC5B2605D002862
:103A1000F7D170BD10B50246012000E050430B0005
:103A2000A1F10101FAD110BD4C130020A413002014
:103A3000A8130020AC130020B0130020B413002002
:103A4000B8130020BC130020C01300205C1300201A
:103A5000EDBC8DCD8E94F03F66661040641300205F
:103A60006013002000000C40681300206C1300203D
:103A70000000164070130020000012407413002054
:103A8000781300207C130020801300200000C8421F
:103A900084130020881300208C1300209013002032
:103AA00094130020981300209C130020A0130020E2
:103AB00000080140004400402DE9F04106460C4654
:103AC000002512E0601B411E0A20FFF7A3FFB6FB92
:103AD000F0F00A21B0FBF1F201FB120000F1300717
:103AE0003846FFF76FFF681CC5B2A542EADBBDE8A8
:103AF000F08170B504460D46E0B2FFF763FF204643
:103B000070BD0FB400B59BB01DA8019002A8019A2A
:103B10001C9900F08FF80020019002A8FFF76DFFBC
:103B20001BB05DF814FB10B5FF20FFF74BFF082119
:103B30003848FFF755FFFE20FFF744FF10BD364819
:103B40000078012804D10020334908700120704713
:103B50000020FCE710B540F225513048FEF786FD05
:103B6000012855D12D48FEF701FDC4B22C4800783C
:103B700040B92C2C46D10120294908700020294940
:103B800008703FE02648007801280AD1122C01D0A5
:103B9000262C37D1022022490870002021490870C4
:103BA00030E01F480078022810D11F481D490978CD
:103BB00044541C480078401C1A4908700846007894
:103BC00008281FDB0320164908701BE01448007802
:103BD000032817D15B2C15D1002011490870012052
:103BE0000D49087011480068401C10490860FFF733
:103BF0002BFDFFF74AFD0D4800680A2802DB042070
:103C00000749087040F225510448FEF759FD00BFEE
:103C100010BD000044130020541300200044004055
:103C2000C8130020C91300204C130020C413002027
:103C3000704700001CB50C46064B7B44694600905B
:103C4000204600F0D0F804460020694600F0DEF877
:103C500020461CBDCF010000704770477047704779
:103C600010B500F0BBFA006810BD10B5044600F0B6
:103C7000B5FA046010BD70B5044685690068C106D8
:103C800001D5302600E02026C00707D070BDD4E95A
:103C9000012130469047206A401C20626D1EF6D5F7
:103CA00070BD70B5044685690078C00707D170BD46
:103CB000D4E9012120209047206A401C20626D1E1B
:103CC000F6D570BD09684A0501D540B27047C905EF
:103CD000FCD500B2704709684A0501D5C0B27047EB
:103CE000C905FCD580B2704770B50C460546012A5F
:103CF00005D02878800600D5EA69002302E0012378
:103D000005E05B1C934202D2E05C0028F9D1A8696F
:103D1000E618C01AA861286A184428622846FFF7E6
:103D2000AAFF04E0D5E9012114F8010B9047B44241
:103D3000F8D32846FFF7B5FF70BD00002DE9F0412C
:103D40000646002410687529314616A510D0FFF7E5
:103D5000B9FF002802DA404213A507E031688A075C
:103D600001D512A502E0490704D511A5012401E0FF
:103D7000FFF7B1FF00210A2206F1240709E0B0FB9A
:103D8000F2FCB0FBF2F302FB1C0030307854184612
:103D9000491C0028F3D123462A463046BDE8F041AD
:103DA00000F065BA000000002D0000002B000000AC
:103DB0002000000011680268006A530501D50870F0
:103DC0000AE0D30501D5088006E0130603D5C21723
:103DD000C1E9000200E008600120704701694A1C47
:103DE00002610878704700B58FB0CDE9013100213C
:103DF000059105497944CDE903101146684600F064
:103E000029F90FB000BD0000E5FFFFFF0A6802F8C6
:103E1000010B0A60704700002DE9FF5F15468A46D6
:103E20000446DFF8AC80F8440027D8E900103E468D
:103E3000CDE9001010E03AF816106A4602A800F02A
:103E400027FE411C07D02178890603D5E26939187D
:103E500091420DD80744761C2078800602D5E0698F
:103E6000B84205DDAE42E6DB3AF816000028E2D1A2
:103E7000A069C01BA0612046FFF7FDFED8E9001035
:103E8000CDE90010002017E03AF818106A4602A8A1
:103E900000F0FEFDB0F1FF3F81460BD000250DF193
:103EA000080B05E0D4E901211BF8050090476D1CC3
:103EB0004D45F7D308F10100B0428046E4DB206AAB
:103EC000384420622046FFF7ECFEBDE8FF9F00006B
:103ED000D64800002DE9F0418046D21D22F00702AD
:103EE0000025D2E90002F52915A614D0011E72F1B1
:103EF000000106DA0023D0EB030063EB020211A6F7
:103F000008E0D8F800108B0701D50FA602E049079A
:103F100001D50EA601251146002408F1240704E06E
:103F200000F060F930323A55641C50EA0102F7D1D2
:103F30002B46324621464046BDE8F04100F097B995
:103F4000000000002D0000002B00000020000000F9
:103F500030B4002100F1240408E002F00705D20883
:103F6000303542EA4372DB086554491C52EA0305C6
:103F7000F3D10468002310A2250708D504F020041B
:103F80000C4304D0C46901230CA2641EC46130BC7C
:103F900000F06DB910B5044621461068FFF79BFE8E
:103FA00002462046BDE810400023D1E7D21D22F092
:103FB0000701D1E90023CBE700000000300000003A
:103FC000F0B40D460188090502D5214C7C4402E07D
:103FD0001F4C7C440E34002100F1240608E002F05E
:103FE0000F071209E75D42EA03721B097754491C67
:103FF00052EA0307F3D102780023120704D5702D8B
:1040000006D009B1022311342246F0BC00F02FB9CA
:1040100001231034F8E770B504460D4621461068B8
:10402000FFF759FE024629462046BDE870400023AE
:10403000C6E7D21D22F00703D3E90023C0E70368D7
:10404000126843F0200303600823C3610023B7E72D
:10405000384700002DE9F05F894604464FF0000A1A
:10406000DFF874B1FB44C0F820A02046E16888471F
:10407000002874D0252806D0D4E901219047206A71
:10408000401C2062F1E700265F462046E168884731
:104090002028054607DB312D05D2781910F8200CB1
:1040A00008B10643F1E7B00701D526F00406C4F8CD
:1040B0001CA00027C4F818A02A2D09D0284601F01A
:1040C00063FA38B304EB8708303DC8F8185019E09C
:1040D00059F8041B204604EB87029161E168884788
:1040E000012F054618D1E069002820DA26F02006C5
:1040F0001DE0D8F8180000EB800005EB40003038D8
:10410000C8F818002046E1688847054601F03CFAE7
:104110000028EED1012F0AD02E2D08D12046E168CB
:1041200088477F1C0546022F46F02006C4DBA069A5
:10413000002803DA404246F00106A061F00701D0F2
:1041400026F010066C2D0BD0682D09D04C2D39D0DF
:104150006A2D35D0742D35D07A2D33D016E038E065
:10416000E1682F4620468847B842054609D16C2FA2
:1041700026D04FF48060E168064320468847054614
:1041800004E06C2F1AD04FF4807006430DB3A5F1F4
:104190004100192802D8203546F400664A462946CF
:1041A000204626604E46FBF7FBFF80B101280BD06E
:1041B000F61D26F0070000F1080956E74020E4E765
:1041C0008020D8E70020D6E706F104094DE728460D
:1041D00052E7206ABDE8F09FC846000000487047DB
:1041E0006419002030B5B0F10A024FEA900E71F167
:1041F00000034EEA817EB0EB0E0061EB91014FEAC5
:10420000101E4EEA017E10EB0E0041EB11114FEA39
:10421000102E4EEA016E10EB0E0041EB11214FEA19
:10422000104E4EEA014E10EB0E0041EB11414018CA
:1042300041F100014FEAD00040EA41704FEAD1015C
:1042400010EB80054FEA810444EA907444EB0104CA
:104250006D1944EB0404521BA3414FF0000348BF07
:104260000A3200D530BD401C41F1000130BD2DE9BE
:10427000F0470D4699469246044600F1240801682D
:10428000880604D5E06921F01001216000E00120DA
:10429000A84201DD471B00E00027A1697A1902EB63
:1042A0000900081AA0612078C00602D42046FFF752
:1042B000E2FC002608E0D4E901211AF80600904744
:1042C000206A401C761C20624E45F4DB2078C00634
:1042D0000AD52046FFF7CFFC06E0D4E901213020C3
:1042E0009047206A401C2062381EA7F10107F4DCC9
:1042F00007E0D4E9012118F805009047206A401C26
:104300002062281EA5F10105F3DC2046FFF7C9FC59
:104310002078000602D50220BDE8F0870120FBE7E7
:1043200070472DE9FF4F0C461E464FF0FF378BB00C
:10433000D2E90001DDF860800A908A46C1F30A558F
:1043400005B93D46002108464FF00000BAF1000FC4
:1043500000F4400005DA00EB80004FF4400101EA70
:1043600050004FEA9059B9F1010F00DDB9460A98A3
:1043700050EA4A000ED044F61050A5F2FF354543EE
:104380002F14B8F1000F1ED07542291E1EDDC9F191
:1043900000021CE0B8F1010F4FF0000001D0302105
:1043A00003E0F24305E02154401CB042FBDB304601
:1043B0000022002121540B99C1F80880C1E9002096
:1043C0000FB0BDE8F08FBD1B6D1CDEE74A4600DA7A
:1043D000694206A800F0F2FB06AB93E8070003ABC6
:1043E00083E8070050460A9900F09CFC8DE807001E
:1043F000A0F500501F3800900398002D09DD42F20F
:104400001F014A46084403A90390684600F0FBFEDA
:1044100008E0A0F500504A461F3803A903906846FB
:1044200000F005FF8DE807000004000C03D04FF0FA
:10443000FF30410800E01046B8F1000F03D0002221
:10444000009215461EE0751E05D4FFF7CBFE3032F4
:1044500062556D1EF9D5B3460122084302D00022F1
:104460007F1C04E02078302801D100227F1E002A22
:10447000099786D01DE0112D07DAFFF7B3FE303221
:1044800062556D1C50EA0102F5D1084302D0009834
:10449000C8B10EE00021681E05E0235C625C635435
:1044A0002254401E491C8142F7DBAB46A81B401E2C
:1044B0000990002004F80B000B98099AC0F80880B6
:1044C000C0E9002B7CE711264FF0000859E72DE9E1
:1044D000F04F88460446D21D22F0070191B0D1E981
:1044E0000001CDE90A0100F0D8FF02460B98C00F89
:1044F00001D02D2007E02068810701D52B2002E0A4
:10450000202101EAC000032A099001D0072A05DB17
:1045100003464146204600F011FB0BE1207880065F
:1045200001D5E06900E00620B8F1650F814606D0AC
:10453000B8F1660F18D0B8F1670F70D131E00020E4
:10454000B9F1110F009001DB112301E009F1010322
:104550000AAA01A90CA8FFF7E4FEDDE90C70002609
:1045600009F10105834647E001204B4600904FF0DA
:1045700000470AAA01A90CA8FFF7D3FEDDE90DB098
:104580000C995D46002610B909F101000D18B9EB30
:10459000050003D4C0F1FF3609F10105A5EB0900C0
:1045A0002BE0B9F1010F01DA4FF001090020B9F158
:1045B000110F0090484601DD112300E003460AAACE
:1045C00001A90CA8FFF7ADFEDDE90C704D460026F1
:1045D0008346207800070AD4AB4500DA5D4601A87F
:1045E000012D04DD411911F8011C302907D04F4578
:1045F00002DA17F1040F04DA012082460FE06D1E83
:10460000EEE7002F02DCED1B3E4403E0781CA842DD
:1046100000DD7D1CB81B00F1010A4FF00047207837
:10462000000703D4AA4501DB4FF0FF3A0021B7F1A0
:10463000004F0DF143088DF8431024D002202B23A6
:10464000002F01DA7F422D230A21021EA0F1010072
:1046500000DC5FB197FBF1FC97FBF1F201FB1C7CE6
:1046600017460CF1300C08F801CDEEE7A8F1010077
:1046700003702188090501D5452100E06521A0F1DD
:10468000010800F8011C09980FA9A1EB0807FF1DFC
:1046900000B10120411901EBEA70A1693844081A00
:1046A000401EA0612078C00602D42046FFF7E3FA3E
:1046B000099828B1D4E901219047206A401C206262
:1046C0002078C00622D52046FFF7D5FA1EE0002E3E
:1046D00004DBB34502DD01A8805D00E03020D4E9B1
:1046E00001219047206A401C2062761CAAF101003B
:1046F0005FEA000A0AD100F01DFAC0680168405C58
:10470000D4E901219047206A401C2062281EA5F1AF
:104710000105DCDC07E0D4E9012118F8010B904722
:10472000206A401C2062381EA7F10107F3DC2046F6
:10473000FFF7B7FA032011B043E600002DE9F04F70
:1047400004460D46D21D22F0070089B0D0E9009240
:1047500048461746394600F0A0FE0246F80F01D041
:104760002D2307E02068810701D52B2302E02021BB
:1047700001EAC0038DF820300BB1012000E00020D9
:10478000032A824601D0072A04DB2946204600F08E
:10479000D5F93DE12078800601D40D2500E0E569DA
:1047A000C7F30A560D2D49DA00214FEA175B084678
:1047B0004FF00000002F00F4400007DA00EB80000B
:1047C0004FF4400100EBD07001EA6000811501292F
:1047D00001DD4FF0FF3100224FEA850CBCF1180FCC
:1047E00006D31346ACF118004FF08052C24003E0EC
:1047F0004FF4801323FA0CF30CF10C0CBCF1200FD6
:1048000004D3ACF1200C09FA0CF001E007FA0CF02B
:1048100000294FF0004801DD18B90FE00ED14045E6
:104820000CD319EB02095F4121B9404502D19F43E6
:1048300029EA0209BBEB175F00D0761C208800052F
:1048400002D57B48784402E079487844193808AAB0
:10485000302302F80A30037C0AF10101002E0AF12C
:10486000020A53546A4602DC4FF0300101E04FF077
:1048700031014FF001088DF8001002D0A6F2FF368A
:1048800003E059EA470100D06A4E002D02DC21788E
:10489000090704D54FF002082E218DF80110C446F7
:1048A00000210BE0C7F303433F01C35C491C6D1EAD
:1048B00002F80830052908F1010801DA002DF1DCC1
:1048C00000210CE000EB1973491C1B786D1E0829B0
:1048D00002F808304FEA091908F1010801DA002D41
:1048E000F0DC2178890602D514E0A8F10108E04542
:1048F00005DD02EB080111F8011C3029F5D0B8F1F3
:10490000000F07DD02EB080111F8011C2E2901D16F
:10491000A8F10108002D05DD3E2102F808106D1EEA
:1049200008F10108407C002E02F8080008F1010897
:1049300004DA2D20764202F8080002E02B2002F86B
:1049400008000A214FF47A70864208F101080BDB57
:1049500096FBF0F3303302F8083096FBF0F308F1E1
:10496000010800FB136601E0642E0CDB642096FB5B
:10497000F0F3303302F8083096FBF0F308F1010849
:1049800000FB136601E00A2E06DB96FBF1F03030E7
:1049900002F8080008F1010896FBF1F001FB106035
:1049A000303002F80800A16908F1010808EB05029F
:1049B00002EB0A00081AA0612078C00602D4204643
:1049C000FFF759F9216A08AE01EB0A00206204E002
:1049D000D4E9012116F8010B9047BAF1010AF7D288
:1049E0002078C00602D52046FFF745F96E4609E05B
:1049F00016F8010B3E280FD0D4E901219047206A18
:104A0000401C2062B8F10108F2D22046FFF749F9B4
:104A100009B00320BDE8F08F206A2844206203E03B
:104A2000D4E90121302090476D1EEBD3F8E7000058
:104A30001B3F000002FCFFFF10B5436913B1AFF349
:104A4000008001E0FFF750F9012010BD127800F15D
:104A500024010A7000224A700122EDE711684FF02C
:104A6000FF32E9E710B5436913B1AFF3008001E00D
:104A7000FFF7D2F9012010BD128800F124018284D1
:104A80000022C2840122EDE711684FF0FF32E9E70E
:104A900070B516460C46054600F044F8036893F8D6
:104AA0000101012806D0FF2C0FD8185D68B1012044
:104AB0002C7070BDD3F807013246214603F207136C
:104AC00003442846BDE8704018474FF0FF3070BDE2
:104AD00000487047641900207546FFF7F9FFAE469D
:104AE00005006946534620F00700854618B020B5FA
:104AF000FCF7EEF8BDE820404FF000064FF000074D
:104B00004FF000084FF0000B21F00701AC46ACE875
:104B1000C009ACE8C009ACE8C009ACE8C0098D46E2
:104B20007047000010B500F005F8001D10BD00BF73
:104B3000810E000000487047841900202DE9F041E3
:104B40001F46044603260168072A01F4006004DBBF
:104B500008B116A505E016A503E008B115A500E00B
:104B600015A521F010002060A069C01EA0610FB142
:104B7000401EA0612046FFF77EF84FB1D4E9012125
:104B800038469047206A401C2062C01C206206E024
:104B9000206AFAE7D4E9012115F8010B9047761E47
:104BA000F8D22046FFF77DF8BDE8F0814E414E0077
:104BB0006E616E00494E4600696E66002DE9F04751
:104BC000814616468AB0334878440DC88DE80D00FA
:104BD00030487844801C03AC0DC884E80D0041F6D1
:104BE0009B300844372190FBF1F290FBF1F5A5F1E1
:104BF000800501FB12041B3C02D56442012000E049
:104C00000020DFF890A080460027FA44AAF1BE0AEF
:104C10000DE0E00709D03246684607EB47010AEB92
:104C2000810100F004FB8DE8070064107F1C002C5C
:104C3000EFD1184F7F44AC3F18E0E80714D007EBE2
:104C400004100DF1180A90E80E008AE80E00C06802
:104C5000F04201D198190890324606A903A800F045
:104C6000E6FA03AB83E807006D10641C002DE4D165
:104C700032466946B8F1000F03A802D000F0C3FA2B
:104C800001E000F0D4FAC9E90001C9F808200AB02F
:104C9000BDE8F087283C00000446AFF300802046C2
:104CA000FBF7E1FA4FF0013C50F8042B51F8043BBC
:104CB0009A4221D1A2EB0C03934313EACC1317D1F0
:104CC00050F8042B51F8043B9A4215D1A2EB0C0387
:104CD000934313EACC130BD150F8042B51F8043B47
:104CE0009A4209D1A2EB0C03934313EACC13DBD015
:104CF0004FF00000704700BFD01A01BAB1FA81F13D
:104D000001F0180122FA01F0CB40C1F12001DBB221
:104D1000C0B2C01A2CFA01F3D11A914311EAC3119F
:104D2000E6D170475FEA400C08BF91F0000F4FEAF0
:104D30008C234FEAC12243EA51514FEA1C5018BF5D
:104D400000F5F0404FEA300018BF41F000415FEA43
:104D50006C5C00F02980BCF1FF3F08BF40F0804050
:104D60007047130C06BF12044FF0100C4FF0000CEC
:104D7000130E04BF12020CF1080C130F04BF120132
:104D80000CF1040C930F04BF92000CF1020CD30F32
:104D900004BF52000CF1010C11464FF00002A0F1CB
:104DA0001F00A0EB0C00704711F0004F08BF7047C8
:104DB00031F000413FF4D5AF0B0C06BF09044FF0B2
:104DC000100C4FF0000C0B0E04BF09020CF1080C84
:104DD0000B0F04BF09010CF1040C8B0F04BF8900F9
:104DE0000CF1020CCB0F04BF49000CF1010CCCF10B
:104DF0002003A0EB0C0022FA03F302FA0CF241EAC2
:104E0000030100F10100704720F07F4C80EA0300AD
:104E100023F07F47ACEB070303F57C5300F0004021
:104E200003F1FF032DE980494FEA154B09B44FEA1E
:104E3000144325EA0B4E24EA03480FF2042606EB3E
:104E4000132749083E785FEA320203FB0667C7F57D
:104E5000000707FB06F64FEA54374FEAD64606F13D
:104E6000020607FB066CCCF1005C4FEA1C472CEAFB
:104E7000074C07FB06F40CFB06F504EB15464FEA5E
:104E8000961634BF00204FF000404FEAD13706FBA2
:104E900007FC4FEA1C4C0CFB0BF7D21B03FB0CF777
:104EA00061EB07010CFB0EF7B0EB074072EB17420A
:104EB0000CFB08F734BFA2EB0742B2EB074261EBF1
:104EC00017414FEA0C444FEA910706FB07FC4FEAF3
:104ED0001C4C0CFB0BF7B0EBC74072EB573203FBDB
:104EE0000CF734BFA2EBC742B2EBC74261EB5731BC
:104EF0000CFB0EF7B0EBC70072EB57720CFB08F718
:104F000034BFA2EBC702B2EBC70261EB5771039F3C
:104F10004FEA816141EA921104EBCC044FEAD137A8
:104F20004FEA826206FB07FC42EA90124FEA806079
:104F30004FEA1C4C0CFB0BF7D21B03FB0CF761EB8D
:104F400007010CFB0EF7B0EB074072EB17420CFBAE
:104F500008F734BFA2EB0742B2EB074261EB1741FF
:104F60004FEA8C554FEA910704EB9C2406FB07FCA3
:104F70004FEA1C4C0CFB0BF7B0EBC74072EB5732FF
:104F800003FB0CF734BFA2EBC742B2EBC74261EBA5
:104F900057310CFB0EF7B0EBC70072EB57720CFBEE
:104FA00008F734BFA2EBC702B2EBC70261EB57713F
:104FB00015EB4C254FEA816141EA92114FEA82627A
:104FC0004FEAD13742EA901206FB07FC44F1000495
:104FD0004FEA80604FEA1C4C0CFB0BF7D21B03FB23
:104FE0000CF761EB07010CFB0EF7B0EB074072EB1F
:104FF00017420CFB08F734BFA2EB0742B2EB0742A3
:1050000061EB174115EB1C154FEA813141EA9241E2
:105010004FEA823242EA90424FEA80304FEA0C7601
:1050200044F1000448EA03434EEA0B484FF0000EF7
:10503000B2EB080C71EB030724BF624639464EEB16
:105040000E0E4FF0000B0018524149414BEB0B0B79
:10505000B2EB080C71EB03077BF1000B24BF624637
:1050600039464EEB0E0E4FF0000B001852414941ED
:105070004BEB0B0BB2EB080C71EB03077BF1000B56
:1050800024BF624639464EEB0E0E51EA020718BFA6
:1050900046F0010616EB0E7655F1000254F10001C0
:1050A00003D5BDE88901BDE80088BDE88901BDE8F8
:1050B0000048B619524141EB0101A3F101037047C9
:1050C00080807F7E7D7C7B7A797877767675747345
:1050D000727171706F6E6E6D6C6C6B6A6A69686804
:1050E000676666656464636362616160605F5F5E9A
:1050F0005E5D5D5C5C5B5B5A5A5959585857575610
:105100005655555554545353525252515150505074
:105110004F4F4F4E4E4D4D4D4C4C4C4B4B4B4A4AC6
:105120004A4949494848484747474746464645450A
:105130004544444444434343434242424241414143
:10514000002B26D4770021D01CB54FEA370703B4D3
:105150004FF010004FF010014FF000000FBCBDE801
:1051600010400BF1010BBBF1010F08BF5FEA1707FD
:1051700022BF12F1010211F101014FF0004143F190
:10518000000300F0004043EA00007047F9D35708DD
:10519000DAE746EA064613F1400F4FEA16461FDDEE
:1051A00013F1200FDFBF16430A46002120335B4274
:1051B000C8D0C3F1200746EA064602FA07F74FEACD
:1051C000164646EA0706C3F1200722FA03F201FA5F
:1051D00007F721FA03F14FF0000342EA0702B1E7B3
:1051E00046EA020646EA06464FEA164646EA01063F
:1051F000BCBF46EA0646360C4FF000034FF00002F3
:105200004FF000019EE72DE9C048934630B491E885
:10521000380007C831EA400C48BF34EA430C03D5D4
:10522000FFF7F2FDFFF78CFFF0BCBDE800882DE929
:10523000C048934630B491E8380007C810F0804F5A
:1052400008BF13F0804F03D100F005F8FFF778FF97
:10525000F0BCBDE8008820F07F4780EA030023F01F
:105260007F4C07EB0C03A3F57C5300F00040A3F147
:10527000FE0392F0000F00F0B38095F0000F00F0F5
:1052800077802DE901494FEA11404FEA144621EA9F
:10529000004800FB06FC24EA064708FB06F607FB6D
:1052A00008F800FB07F718EB06484CEB164C4FEAE2
:1052B000124B18EB07484FEA15464CEB174022EA11
:1052C0000B4E0BFB06FC25EA06470EFB06F607FB1A
:1052D0000EFE0BFB07F71EEB064E4CEB164C4FF089
:1052E00000061EEB074E4CEB174B18EB0B0840F17A
:1052F000000018EB0E0B58EB000840F100008F1A6D
:105300004FF000013CBFC943661B14BFB5EB040C52
:1053100000213CBFC943F61B4FEA17444EEA8E0EEC
:1053200027EA04454FEA1C4704FB07622CEA074CB6
:1053300005FB07F70CFB05F604FB0CFC16EB074618
:1053400042EB174216EB0C4642EB1C421BEB0606E7
:1053500058EB0202414146EA9E0601D5BDE80189AB
:10536000B619524141EB0101A3F10103BDE80189E6
:105370004FEA14454FEA114724EA054621EA074C53
:1053800005FB07F406FB07F70CFB06F105FB0CFC1D
:1053900011EB074144EB17444FEA124711EB0C4164
:1053A00044EB1C4422EA074C05FB07F206FB07F717
:1053B0000CFB06F605FB0CFC16EB074642EB17420E
:1053C00016EB0C4642EB1C456A1854F1000148BF2D
:1053D0007047B619524141EB0101A3F10103704737
:1053E00095F0000F37D04FEA11424FEA144721EAF7
:1053F000024624EA074C02FB07F106FB07F70CFB09
:1054000006F402FB0CFC14EB074441EB17414FEA96
:10541000154714EB0C4441EB1C4125EA074C02FBF9
:1054200007F506FB07F70CFB06F602FB0CFC16EB78
:10543000074645EB174516EB0C4645EB1C42121987
:1054400051F1000148BF7047B619524141EB0101CB
:10545000A3F1010370474FEA14454FEA114724EACC
:10546000054621EA074C05FB07F106FB07F70CFB95
:1054700006F24FF0000605FB0CFC12EB074241EB75
:10548000174112EB0C4251EB1C4148BF7047921878
:1054900041EB0101A3F101037047490050EAC1202B
:1054A00018BF04204A0D18BF40F0010040F2FF72FF
:1054B000B2EB515F08BF40F00200012808BF052091
:1054C00070472DE9F0414F1E00EBC7010446D1E9BA
:1054D000000115461E4637F006020DD02A46334617
:1054E00000F0E4FC7F1E04EBC703D3E9002300F0C7
:1054F000A7FA37F00602F1D1022F25D0042F13D0DE
:10550000062F18BFBDE8F0812A46334600F0CEFCD6
:10551000D4E90A2300F094FA2A46334600F0C6FC88
:10552000D4E9082300F08CFA2A46334600F0BEFC8A
:10553000D4E9062300F084FA2A46334600F0B6FC8C
:10554000D4E9042300F07CFA2A46334600F0AEFC8E
:10555000D4E9022300F074FA2A46334600F0A6FC90
:10556000D4E90023BDE8F04100F06ABA012201F05D
:10557000F2BA00F065BA0000024A0020110701F0FB
:10558000EABA000001FDFFFF30380A2801D20120ED
:1055900070470020704700002DE9F84F04460D4683
:1055A00021F0004000917349814211DC7249884228
:1055B00001DC06D12CB120462946BDE8F84FFFF7A3
:1055C000D5BF6E48002DCCBF6D496E49BDE8F88F40
:1055D0006D49814211DD6D498142D8BF4FF0FF36E0
:1055E0006DDD20462946FFF758FF042808BFFFF766
:1055F000C3FF20462946BDE8F88F6549654F25F071
:105600000045814233DD6449814219DD002632467E
:105610004FF080432046294600F012FA80468A4621
:1056200001222046294601F096FA00223B4600F06E
:105630002DFE4246534600F0B3FA04460D463EE0C6
:1056400001260022BA463B462046294600F0F8F9DA
:1056500080460F46002253462046294600F016FE9B
:1056600042463B4600F09CFA04460D4627E04B4973
:1056700081421BDDDFF828A1022600225346204686
:10568000294600F013FC00223B4600F0D9F9804681
:105690000F46002253462046294600F0F7FD4246B9
:1056A0003B4600F07DFA04460D4608E003262246FC
:1056B0002B4600203B4900F073FA04460D46224673
:1056C0002B461046194600F0F1FB8B4682460246F7
:1056D0000B4600F0EBFB07460246334888460B4674
:1056E00006217844FFF7EDFE52465B4600F0DEFBF4
:1056F00082462E488B463A46434605217844FFF7BA
:10570000E0FE3A46434600F0D1FB02460B46002E2F
:10571000504659460CDA00F093F922462B4600F029
:10572000C5FB01B022462B46BDE8F04F00F0BCBCE3
:1057300000F086F922462B4600F0B8FB1C4A7A445A
:1057400002EBC603D3E9002300F0A0FD22462B465E
:1057500000F09CFD174A7A4402EBC603D3E900230C
:1057600000F0A2FC009A002AB8BF81F00041BDE819
:10577000F88F0000000010440000F07F182D445402
:10578000FB21F93FFB21F9BF0000DC3F0000203E78
:105790000000F33F0000F03F0000E63F00800340C0
:1057A0000000F83F0000F0BFEA2F0000A82F000023
:1057B000462F00000E2F00002DE9F04D9446CCF14D
:1057C000000423F000464CEA0404524F46EAD47425
:1057D0009A46884621F00042BC4206D8454240EA3B
:1057E000050442EAD474BC4204D9BDE8F04D6246D7
:1057F000FFF7BFBEAAF14055A5F17F6555EA0C043D
:105800000BD0022404EAAA74434DDFF810E144EA05
:10581000D87452EA000B04D00CE0BDE8F04DFFF75D
:10582000BBBE002C14BF012CBDE8F08D022C30D083
:10583000032C32D056EA0C0B0AD0BE4220D1BA4219
:1058400009D126F0804622F080423346114617E007
:1058500000291ADB25E0DFF8C8B0FB44002C04BFA8
:10586000DBE90001BDE8F08D012C02BFDBE900019E
:1058700081F00041BDE8F08D022C0AD0032C0CD041
:10588000BA4212D1B8F1000F0BDA23482549BDE81E
:10589000F08D28462449BDE8F08D28467146BDE8C4
:1058A000F08D1D482149BDE8F08D921B12153C2A50
:1058B000C4BF19481D490EDCBAF1000FBEBF12F17A
:1058C0003C0F0020014606DB624600F069F921F03A
:1058D0000041FFF761FE002C08BFBDE8F08D012CF0
:1058E00004BF81F00041BDE8F08D114A114B022C3C
:1058F00007D000F0CBFC2A46BDE8F04D0A4B00F083
:10590000C5BC00F0C3FC2A46BDE8F04D064B00F0D4
:10591000CBBB00000000F07F182D4454FB2109C0D0
:10592000EA2E0000FB21F9BFFB210940FB21F93FD2
:10593000075C143326A6A13C2DE9F04106460F462C
:1059400000F0BEFB04000D4618BF0120284320F0E4
:105950000040C0F17F6000F1E040C00F0ED0301C6D
:1059600018BF0120384320F00040C0F17F6000F1F3
:10597000E040C00F04BF0120FEF777F9204629461A
:10598000BDE8F08110B500290AD00878002807D0BA
:1059900005487844FFF786F9002801D0002010BDA3
:1059A0000248784410BD00009A2E0000922E00009C
:1059B00010B500290AD00878002807D00548784497
:1059C000FFF770F9002801D0002010BD024878448C
:1059D00010BD00008A2E0000822E000021F000423F
:1059E000A2F16052B2F5801F01F0004328BFD2F14E
:1059F0007F6C0BD95FEA001C43EAC20242EB507095
:105A000018BF704728BF20F001007047B2F5801F13
:105A1000BCBF184670474FEA410C1CF5001F02D26C
:105A2000084600F0ACBF70B500F0EAFA000000894B
:105A3000FFF7F6BF4FF00040A0F580007047000070
:105A400010B591EA030F48BF83F0004300F12684AC
:105A5000841A71EB030C05D2121943EB0C03001BE3
:105A600061EB0C01DFF824E14FEA1154A4EB135C65
:105A70001EEA430F18BF9EEA445F73D023EA0E0369
:105A8000DCF1200E21EA045143F4801332D322FAD0
:105A90000CFE10EB0E0023FA0CFE41EB0E01CCF1D4
:105AA000200E03FA0EFE10EB0E0051F10001B1F5CD
:105AB000801FCCF1200E32D201EB045112FA0EF20B
:105AC000BDE8104058BF7047401C38BF5FEA420233
:105AD00018BF7047002814BF20F0010041F10001F9
